{
  "contractName": "SSI",
  "abi": [
    {
      "constant": true,
      "inputs": [],
      "name": "docCount",
      "outputs": [
        {
          "internalType": "uint256",
          "name": "",
          "type": "uint256"
        }
      ],
      "payable": false,
      "stateMutability": "view",
      "type": "function"
    },
    {
      "constant": true,
      "inputs": [
        {
          "internalType": "uint256",
          "name": "",
          "type": "uint256"
        }
      ],
      "name": "documents",
      "outputs": [
        {
          "internalType": "uint256",
          "name": "id",
          "type": "uint256"
        },
        {
          "internalType": "string",
          "name": "user_did",
          "type": "string"
        },
        {
          "internalType": "string",
          "name": "did",
          "type": "string"
        },
        {
          "internalType": "string",
          "name": "ipfs",
          "type": "string"
        },
        {
          "internalType": "string",
          "name": "signature",
          "type": "string"
        },
        {
          "internalType": "bool",
          "name": "status",
          "type": "bool"
        }
      ],
      "payable": false,
      "stateMutability": "view",
      "type": "function"
    },
    {
      "constant": false,
      "inputs": [
        {
          "internalType": "string",
          "name": "user_did",
          "type": "string"
        },
        {
          "internalType": "string",
          "name": "did",
          "type": "string"
        },
        {
          "internalType": "string",
          "name": "ipfs",
          "type": "string"
        }
      ],
      "name": "addDocument",
      "outputs": [],
      "payable": false,
      "stateMutability": "nonpayable",
      "type": "function"
    },
    {
      "constant": true,
      "inputs": [],
      "name": "getDocCount",
      "outputs": [
        {
          "internalType": "uint256",
          "name": "",
          "type": "uint256"
        }
      ],
      "payable": false,
      "stateMutability": "view",
      "type": "function"
    },
    {
      "constant": true,
      "inputs": [
        {
          "internalType": "uint256",
          "name": "id",
          "type": "uint256"
        }
      ],
      "name": "getDocument",
      "outputs": [
        {
          "internalType": "string",
          "name": "user_did",
          "type": "string"
        },
        {
          "internalType": "string",
          "name": "did",
          "type": "string"
        },
        {
          "internalType": "string",
          "name": "ipfs",
          "type": "string"
        },
        {
          "internalType": "bool",
          "name": "status",
          "type": "bool"
        }
      ],
      "payable": false,
      "stateMutability": "view",
      "type": "function"
    },
    {
      "constant": false,
      "inputs": [
        {
          "internalType": "uint256",
          "name": "id",
          "type": "uint256"
        },
        {
          "internalType": "string",
          "name": "user_did",
          "type": "string"
        },
        {
          "internalType": "string",
          "name": "did",
          "type": "string"
        },
        {
          "internalType": "string",
          "name": "ipfs",
          "type": "string"
        },
        {
          "internalType": "string",
          "name": "signature",
          "type": "string"
        }
      ],
      "name": "verifyDocument",
      "outputs": [],
      "payable": false,
      "stateMutability": "nonpayable",
      "type": "function"
    },
    {
      "constant": true,
      "inputs": [],
      "name": "totalDocuments",
      "outputs": [
        {
          "internalType": "uint256",
          "name": "",
          "type": "uint256"
        }
      ],
      "payable": false,
      "stateMutability": "view",
      "type": "function"
    },
    {
      "constant": true,
      "inputs": [
        {
          "internalType": "string",
          "name": "user_did",
          "type": "string"
        }
      ],
      "name": "showAllDocs",
      "outputs": [
        {
          "internalType": "uint256",
          "name": "",
          "type": "uint256"
        }
      ],
      "payable": false,
      "stateMutability": "view",
      "type": "function"
    }
  ],
  "bytecode": "0x60806040526000805534801561001457600080fd5b506113c0806100246000396000f3fe608060405234801561001057600080fd5b50600436106100885760003560e01c806363704e931161005b57806363704e931461043c578063ad4166cc1461045a578063c1474888146106e4578063c2ed2b05146107b357610088565b806336a8915b1461008d5780633f9b250a146102765780634c4dc6e014610400578063553181ec1461041e575b600080fd5b610274600480360360608110156100a357600080fd5b81019080803590602001906401000000008111156100c057600080fd5b8201836020820111156100d257600080fd5b803590602001918460018302840111640100000000831117156100f457600080fd5b91908080601f016020809104026020016040519081016040528093929190818152602001838380828437600081840152601f19601f8201169050808301925050505050505091929192908035906020019064010000000081111561015757600080fd5b82018360208201111561016957600080fd5b8035906020019184600183028401116401000000008311171561018b57600080fd5b91908080601f016020809104026020016040519081016040528093929190818152602001838380828437600081840152601f19601f820116905080830192505050505050509192919290803590602001906401000000008111156101ee57600080fd5b82018360208201111561020057600080fd5b8035906020019184600183028401116401000000008311171561022257600080fd5b91908080601f016020809104026020016040519081016040528093929190818152602001838380828437600081840152601f19601f8201169050808301925050505050505091929192905050506109b0565b005b6102a26004803603602081101561028c57600080fd5b8101908080359060200190929190505050610abc565b6040518080602001806020018060200185151515158152602001848103845288818151815260200191508051906020019080838360005b838110156102f45780820151818401526020810190506102d9565b50505050905090810190601f1680156103215780820380516001836020036101000a031916815260200191505b50848103835287818151815260200191508051906020019080838360005b8381101561035a57808201518184015260208101905061033f565b50505050905090810190601f1680156103875780820380516001836020036101000a031916815260200191505b50848103825286818151815260200191508051906020019080838360005b838110156103c05780820151818401526020810190506103a5565b50505050905090810190601f1680156103ed5780820380516001836020036101000a031916815260200191505b5097505050505050505060405180910390f35b610408610dc5565b6040518082815260200191505060405180910390f35b610426610dcb565b6040518082815260200191505060405180910390f35b610444610dd4565b6040518082815260200191505060405180910390f35b6106e2600480360360a081101561047057600080fd5b81019080803590602001909291908035906020019064010000000081111561049757600080fd5b8201836020820111156104a957600080fd5b803590602001918460018302840111640100000000831117156104cb57600080fd5b91908080601f016020809104026020016040519081016040528093929190818152602001838380828437600081840152601f19601f8201169050808301925050505050505091929192908035906020019064010000000081111561052e57600080fd5b82018360208201111561054057600080fd5b8035906020019184600183028401116401000000008311171561056257600080fd5b91908080601f016020809104026020016040519081016040528093929190818152602001838380828437600081840152601f19601f820116905080830192505050505050509192919290803590602001906401000000008111156105c557600080fd5b8201836020820111156105d757600080fd5b803590602001918460018302840111640100000000831117156105f957600080fd5b91908080601f016020809104026020016040519081016040528093929190818152602001838380828437600081840152601f19601f8201169050808301925050505050505091929192908035906020019064010000000081111561065c57600080fd5b82018360208201111561066e57600080fd5b8035906020019184600183028401116401000000008311171561069057600080fd5b91908080601f016020809104026020016040519081016040528093929190818152602001838380828437600081840152601f19601f820116905080830192505050505050509192919290505050610ddd565b005b61079d600480360360208110156106fa57600080fd5b810190808035906020019064010000000081111561071757600080fd5b82018360208201111561072957600080fd5b8035906020019184600183028401116401000000008311171561074b57600080fd5b91908080601f016020809104026020016040519081016040528093929190818152602001838380828437600081840152601f19601f820116905080830192505050505050509192919290505050610ec8565b6040518082815260200191505060405180910390f35b6107df600480360360208110156107c957600080fd5b8101908080359060200190929190505050611005565b60405180878152602001806020018060200180602001806020018615151515815260200185810385528a818151815260200191508051906020019080838360005b8381101561083b578082015181840152602081019050610820565b50505050905090810190601f1680156108685780820380516001836020036101000a031916815260200191505b50858103845289818151815260200191508051906020019080838360005b838110156108a1578082015181840152602081019050610886565b50505050905090810190601f1680156108ce5780820380516001836020036101000a031916815260200191505b50858103835288818151815260200191508051906020019080838360005b838110156109075780820151818401526020810190506108ec565b50505050905090810190601f1680156109345780820380516001836020036101000a031916815260200191505b50858103825287818151815260200191508051906020019080838360005b8381101561096d578082015181840152602081019050610952565b50505050905090810190601f16801561099a5780820380516001836020036101000a031916815260200191505b509a505050505050505050505060405180910390f35b6040518060c001604052806000548152602001848152602001838152602001828152602001604051806020016040528060008152508152602001600015158152506001600080548152602001908152602001600020600082015181600001556020820151816001019080519060200190610a2b9291906112ae565b506040820151816002019080519060200190610a489291906112ae565b506060820151816003019080519060200190610a659291906112ae565b506080820151816004019080519060200190610a829291906112ae565b5060a08201518160050160006101000a81548160ff0219169083151502179055509050506000808154809291906001019190505550505050565b60608060606000610acb61132e565b600160008781526020019081526020016000206040518060c001604052908160008201548152602001600182018054600181600116156101000203166002900480601f016020809104026020016040519081016040528092919081815260200182805460018160011615610100020316600290048015610b8c5780601f10610b6157610100808354040283529160200191610b8c565b820191906000526020600020905b815481529060010190602001808311610b6f57829003601f168201915b50505050508152602001600282018054600181600116156101000203166002900480601f016020809104026020016040519081016040528092919081815260200182805460018160011615610100020316600290048015610c2e5780601f10610c0357610100808354040283529160200191610c2e565b820191906000526020600020905b815481529060010190602001808311610c1157829003601f168201915b50505050508152602001600382018054600181600116156101000203166002900480601f016020809104026020016040519081016040528092919081815260200182805460018160011615610100020316600290048015610cd05780601f10610ca557610100808354040283529160200191610cd0565b820191906000526020600020905b815481529060010190602001808311610cb357829003601f168201915b50505050508152602001600482018054600181600116156101000203166002900480601f016020809104026020016040519081016040528092919081815260200182805460018160011615610100020316600290048015610d725780601f10610d4757610100808354040283529160200191610d72565b820191906000526020600020905b815481529060010190602001808311610d5557829003601f168201915b505050505081526020016005820160009054906101000a900460ff16151515158152505090508060200151816040015182606001518360a001518393508292508191509450945094509450509193509193565b60005481565b60008054905090565b60008054905090565b6040518060c001604052808681526020018581526020018481526020018381526020018281526020016001151581525060016000878152602001908152602001600020600082015181600001556020820151816001019080519060200190610e469291906112ae565b506040820151816002019080519060200190610e639291906112ae565b506060820151816003019080519060200190610e809291906112ae565b506080820151816004019080519060200190610e9d9291906112ae565b5060a08201518160050160006101000a81548160ff0219169083151502179055509050505050505050565b6000806001905060008090505b6000548111610ffb57836040516020018082805190602001908083835b60208310610f155780518252602082019150602081019050602083039250610ef2565b6001836020036101000a03801982511681845116808217855250505050505090500191505060405160208183030381529060405280519060200120600160008381526020019081526020016000206001016040516020018082805460018160011615610100020316600290048015610fc45780601f10610fa2576101008083540402835291820191610fc4565b820191906000526020600020905b815481529060010190602001808311610fb0575b5050915050604051602081830303815290604052805190602001201415610fee5780606483020191505b8080600101915050610ed5565b5080915050919050565b6001602052806000526040600020600091509050806000015490806001018054600181600116156101000203166002900480601f0160208091040260200160405190810160405280929190818152602001828054600181600116156101000203166002900480156110b75780601f1061108c576101008083540402835291602001916110b7565b820191906000526020600020905b81548152906001019060200180831161109a57829003601f168201915b505050505090806002018054600181600116156101000203166002900480601f0160208091040260200160405190810160405280929190818152602001828054600181600116156101000203166002900480156111555780601f1061112a57610100808354040283529160200191611155565b820191906000526020600020905b81548152906001019060200180831161113857829003601f168201915b505050505090806003018054600181600116156101000203166002900480601f0160208091040260200160405190810160405280929190818152602001828054600181600116156101000203166002900480156111f35780601f106111c8576101008083540402835291602001916111f3565b820191906000526020600020905b8154815290600101906020018083116111d657829003601f168201915b505050505090806004018054600181600116156101000203166002900480601f0160208091040260200160405190810160405280929190818152602001828054600181600116156101000203166002900480156112915780601f1061126657610100808354040283529160200191611291565b820191906000526020600020905b81548152906001019060200180831161127457829003601f168201915b5050505050908060050160009054906101000a900460ff16905086565b828054600181600116156101000203166002900490600052602060002090601f016020900481019282601f106112ef57805160ff191683800117855561131d565b8280016001018555821561131d579182015b8281111561131c578251825591602001919060010190611301565b5b50905061132a9190611366565b5090565b6040518060c0016040528060008152602001606081526020016060815260200160608152602001606081526020016000151581525090565b61138891905b8082111561138457600081600090555060010161136c565b5090565b9056fea265627a7a723158208255190c6c17d763b3f7b682f20dc8b1996ad6d641b14afc9646da086da79b9a64736f6c63430005100032",
  "source": "pragma solidity ^0.5.0;\r\n\r\ncontract SSI {\r\n  uint public docCount = 0;\r\n  struct Document{\r\n      uint id;\r\n      string user_did;\r\n      string did;\r\n      string ipfs;\r\n      string signature;\r\n      bool status;\r\n  }\r\nmapping(uint => Document) public documents;\r\n\r\n\r\n  function addDocument(string memory user_did, string memory did, string memory ipfs) public {\r\n      documents[docCount] = Document(docCount, user_did, did, ipfs, \"\", false);\r\n      docCount++;\r\n  }\r\n\r\n  function getDocCount() public view returns (uint) {\r\n    return docCount;\r\n  }\r\n  function getDocument(uint id) public view returns (string memory user_did,string memory did, string memory ipfs,bool status) {\r\n      Document memory doc = documents[id];\r\n      return (doc.user_did,doc.did,doc.ipfs,doc.status);\r\n  }\r\n  function verifyDocument(uint id,string memory user_did, string memory did, string memory ipfs, string memory signature) public {\r\n      documents[id] = Document(id,user_did,did,ipfs,signature,true);\r\n  }\r\n  function totalDocuments() public view returns (uint){\r\n    return docCount;\r\n  }\r\n\r\n  // function evaluateRequest(string memory user_did) public {\r\n  //     delete index;\r\n  //     for(uint i = 0; i <= docCount; i++){\r\n  //         if(keccak256(abi.encodePacked((documents[i].user_did))) == keccak256(abi.encodePacked((user_did)))){\r\n  //             index.push(i);\r\n  //         }\r\n  //     }\r\n  // }\r\n\r\nfunction showAllDocs(string memory user_did) public view returns (uint){\r\n      uint index;\r\n      index = 1;\r\n      for(uint i = 0; i <= docCount; i++){\r\n          if(keccak256(abi.encodePacked((documents[i].user_did))) == keccak256(abi.encodePacked((user_did)))){\r\n              index = index*100 + i;\r\n          }\r\n      }\r\n      return index;\r\n}\r\n}\r\n\r\n",
  "sourcePath": "F:/bclyang/BLOCK/contracts/SSI.sol",
  "compiler": {
    "name": "solc",
    "version": "0.5.16+commit.9c3226ce.Emscripten.clang"
  },
  "schemaVersion": "3.4.1",
  "updatedAt": "2021-08-01T06:39:42.017Z",
  "networkType": "ethereum",
  "devdoc": {
    "methods": {}
  },
  "userdoc": {
    "methods": {}
  }
}