{
  "contractName": "VerifierSSI",
  "abi": [
    {
      "constant": true,
      "inputs": [],
      "name": "reqCount",
      "outputs": [
        {
          "internalType": "uint256",
          "name": "",
          "type": "uint256"
        }
      ],
      "payable": false,
      "stateMutability": "view",
      "type": "function"
    },
    {
      "constant": true,
      "inputs": [
        {
          "internalType": "uint256",
          "name": "",
          "type": "uint256"
        }
      ],
      "name": "requests",
      "outputs": [
        {
          "internalType": "uint256",
          "name": "id",
          "type": "uint256"
        },
        {
          "internalType": "string",
          "name": "user_did",
          "type": "string"
        },
        {
          "internalType": "string",
          "name": "V_publicKey",
          "type": "string"
        },
        {
          "internalType": "string",
          "name": "comp_and_doc",
          "type": "string"
        },
        {
          "internalType": "string",
          "name": "encAddress",
          "type": "string"
        },
        {
          "internalType": "string",
          "name": "request_at",
          "type": "string"
        },
        {
          "internalType": "bool",
          "name": "removed",
          "type": "bool"
        },
        {
          "internalType": "bool",
          "name": "review",
          "type": "bool"
        },
        {
          "internalType": "bool",
          "name": "status",
          "type": "bool"
        }
      ],
      "payable": false,
      "stateMutability": "view",
      "type": "function"
    },
    {
      "constant": false,
      "inputs": [
        {
          "internalType": "string",
          "name": "user_did",
          "type": "string"
        },
        {
          "internalType": "string",
          "name": "V_publicKey",
          "type": "string"
        },
        {
          "internalType": "string",
          "name": "comp_and_doc",
          "type": "string"
        },
        {
          "internalType": "string",
          "name": "request_at",
          "type": "string"
        }
      ],
      "name": "makeRequest",
      "outputs": [],
      "payable": false,
      "stateMutability": "nonpayable",
      "type": "function"
    },
    {
      "constant": false,
      "inputs": [
        {
          "internalType": "uint256",
          "name": "id",
          "type": "uint256"
        },
        {
          "internalType": "string",
          "name": "encAddress",
          "type": "string"
        }
      ],
      "name": "acceptedByUser",
      "outputs": [],
      "payable": false,
      "stateMutability": "nonpayable",
      "type": "function"
    },
    {
      "constant": true,
      "inputs": [
        {
          "internalType": "string",
          "name": "user_did",
          "type": "string"
        }
      ],
      "name": "showRequest",
      "outputs": [
        {
          "internalType": "uint256",
          "name": "",
          "type": "uint256"
        }
      ],
      "payable": false,
      "stateMutability": "view",
      "type": "function"
    },
    {
      "constant": true,
      "inputs": [],
      "name": "showAllRequest",
      "outputs": [
        {
          "internalType": "uint256",
          "name": "",
          "type": "uint256"
        }
      ],
      "payable": false,
      "stateMutability": "view",
      "type": "function"
    },
    {
      "constant": true,
      "inputs": [
        {
          "internalType": "uint256",
          "name": "id",
          "type": "uint256"
        }
      ],
      "name": "getIndividualRequest",
      "outputs": [
        {
          "internalType": "string",
          "name": "u_did",
          "type": "string"
        },
        {
          "internalType": "string",
          "name": "V_publicKey",
          "type": "string"
        },
        {
          "internalType": "string",
          "name": "comp_and_doc",
          "type": "string"
        },
        {
          "internalType": "string",
          "name": "req_at",
          "type": "string"
        },
        {
          "internalType": "bool",
          "name": "removed",
          "type": "bool"
        },
        {
          "internalType": "bool",
          "name": "review",
          "type": "bool"
        },
        {
          "internalType": "bool",
          "name": "status",
          "type": "bool"
        }
      ],
      "payable": false,
      "stateMutability": "view",
      "type": "function"
    },
    {
      "constant": true,
      "inputs": [
        {
          "internalType": "uint256",
          "name": "id",
          "type": "uint256"
        }
      ],
      "name": "getIndividualRequestForVerifier",
      "outputs": [
        {
          "internalType": "string",
          "name": "u_did",
          "type": "string"
        },
        {
          "internalType": "string",
          "name": "V_publicKey",
          "type": "string"
        },
        {
          "internalType": "string",
          "name": "comp_and_doc",
          "type": "string"
        },
        {
          "internalType": "string",
          "name": "encAddress",
          "type": "string"
        },
        {
          "internalType": "string",
          "name": "req_at",
          "type": "string"
        },
        {
          "internalType": "bool",
          "name": "removed",
          "type": "bool"
        },
        {
          "internalType": "bool",
          "name": "review",
          "type": "bool"
        },
        {
          "internalType": "bool",
          "name": "status",
          "type": "bool"
        }
      ],
      "payable": false,
      "stateMutability": "view",
      "type": "function"
    },
    {
      "constant": false,
      "inputs": [
        {
          "internalType": "uint256",
          "name": "id",
          "type": "uint256"
        },
        {
          "internalType": "bool",
          "name": "review",
          "type": "bool"
        },
        {
          "internalType": "bool",
          "name": "status",
          "type": "bool"
        }
      ],
      "name": "verifyDocument",
      "outputs": [],
      "payable": false,
      "stateMutability": "nonpayable",
      "type": "function"
    },
    {
      "constant": false,
      "inputs": [
        {
          "internalType": "uint256",
          "name": "id",
          "type": "uint256"
        }
      ],
      "name": "removeRequest",
      "outputs": [],
      "payable": false,
      "stateMutability": "nonpayable",
      "type": "function"
    }
  ],
  "bytecode": "0x60806040526000805534801561001457600080fd5b50612d74806100246000396000f3fe608060405234801561001057600080fd5b506004361061009e5760003560e01c806381d12c581161006657806381d12c58146104105780638361d8ac1461068f5780638ba8198814610907578063eee3d36414610b87578063f4f71a0f14610c4c5761009e565b80631a638c68146100a35780632354c23c146102af57806344786fc3146102f557806365b686241461032357806366cbeaf114610341575b600080fd5b6100cf600480360360208110156100b957600080fd5b8101908080359060200190929190505050610c6a565b604051808060200180602001806020018060200188151515158152602001871515151581526020018615151515815260200185810385528c818151815260200191508051906020019080838360005b8381101561013957808201518184015260208101905061011e565b50505050905090810190601f1680156101665780820380516001836020036101000a031916815260200191505b5085810384528b818151815260200191508051906020019080838360005b8381101561019f578082015181840152602081019050610184565b50505050905090810190601f1680156101cc5780820380516001836020036101000a031916815260200191505b5085810383528a818151815260200191508051906020019080838360005b838110156102055780820151818401526020810190506101ea565b50505050905090810190601f1680156102325780820380516001836020036101000a031916815260200191505b50858103825289818151815260200191508051906020019080838360005b8381101561026b578082015181840152602081019050610250565b50505050905090810190601f1680156102985780820380516001836020036101000a031916815260200191505b509b50505050505050505050505060405180910390f35b6102f3600480360360608110156102c557600080fd5b810190808035906020019092919080351515906020019092919080351515906020019092919050505061106d565b005b6103216004803603602081101561030b57600080fd5b8101908080359060200190929190505050611591565b005b61032b611ab9565b6040518082815260200191505060405180910390f35b6103fa6004803603602081101561035757600080fd5b810190808035906020019064010000000081111561037457600080fd5b82018360208201111561038657600080fd5b803590602001918460018302840111640100000000831117156103a857600080fd5b91908080601f016020809104026020016040519081016040528093929190818152602001838380828437600081840152601f19601f820116905080830192505050505050509192919290505050611abf565b6040518082815260200191505060405180910390f35b61043c6004803603602081101561042657600080fd5b8101908080359060200190929190505050611bfd565b604051808a8152602001806020018060200180602001806020018060200189151515158152602001881515151581526020018715151515815260200186810386528e818151815260200191508051906020019080838360005b838110156104b0578082015181840152602081019050610495565b50505050905090810190601f1680156104dd5780820380516001836020036101000a031916815260200191505b5086810385528d818151815260200191508051906020019080838360005b838110156105165780820151818401526020810190506104fb565b50505050905090810190601f1680156105435780820380516001836020036101000a031916815260200191505b5086810384528c818151815260200191508051906020019080838360005b8381101561057c578082015181840152602081019050610561565b50505050905090810190601f1680156105a95780820380516001836020036101000a031916815260200191505b5086810383528b818151815260200191508051906020019080838360005b838110156105e25780820151818401526020810190506105c7565b50505050905090810190601f16801561060f5780820380516001836020036101000a031916815260200191505b5086810382528a818151815260200191508051906020019080838360005b8381101561064857808201518184015260208101905061062d565b50505050905090810190601f1680156106755780820380516001836020036101000a031916815260200191505b509e50505050505050505050505050505060405180910390f35b6106bb600480360360208110156106a557600080fd5b8101908080359060200190929190505050611f6a565b60405180806020018060200180602001806020018060200189151515158152602001881515151581526020018715151515815260200186810386528e818151815260200191508051906020019080838360005b8381101561072957808201518184015260208101905061070e565b50505050905090810190601f1680156107565780820380516001836020036101000a031916815260200191505b5086810385528d818151815260200191508051906020019080838360005b8381101561078f578082015181840152602081019050610774565b50505050905090810190601f1680156107bc5780820380516001836020036101000a031916815260200191505b5086810384528c818151815260200191508051906020019080838360005b838110156107f55780820151818401526020810190506107da565b50505050905090810190601f1680156108225780820380516001836020036101000a031916815260200191505b5086810383528b818151815260200191508051906020019080838360005b8381101561085b578082015181840152602081019050610840565b50505050905090810190601f1680156108885780820380516001836020036101000a031916815260200191505b5086810382528a818151815260200191508051906020019080838360005b838110156108c15780820151818401526020810190506108a6565b50505050905090810190601f1680156108ee5780820380516001836020036101000a031916815260200191505b509d505050505050505050505050505060405180910390f35b610b856004803603608081101561091d57600080fd5b810190808035906020019064010000000081111561093a57600080fd5b82018360208201111561094c57600080fd5b8035906020019184600183028401116401000000008311171561096e57600080fd5b91908080601f016020809104026020016040519081016040528093929190818152602001838380828437600081840152601f19601f820116905080830192505050505050509192919290803590602001906401000000008111156109d157600080fd5b8201836020820111156109e357600080fd5b80359060200191846001830284011164010000000083111715610a0557600080fd5b91908080601f016020809104026020016040519081016040528093929190818152602001838380828437600081840152601f19601f82011690508083019250505050505050919291929080359060200190640100000000811115610a6857600080fd5b820183602082011115610a7a57600080fd5b80359060200191846001830284011164010000000083111715610a9c57600080fd5b91908080601f016020809104026020016040519081016040528093929190818152602001838380828437600081840152601f19601f82011690508083019250505050505050919291929080359060200190640100000000811115610aff57600080fd5b820183602082011115610b1157600080fd5b80359060200191846001830284011164010000000083111715610b3357600080fd5b91908080601f016020809104026020016040519081016040528093929190818152602001838380828437600081840152601f19601f820116905080830192505050505050509192919290505050612379565b005b610c4a60048036036040811015610b9d57600080fd5b810190808035906020019092919080359060200190640100000000811115610bc457600080fd5b820183602082011115610bd657600080fd5b80359060200191846001830284011164010000000083111715610bf857600080fd5b91908080601f016020809104026020016040519081016040528093929190818152602001838380828437600081840152601f19601f82011690508083019250505050505050919291929050505061269a565b005b610c54612bb8565b6040518082815260200191505060405180910390f35b6060806060806000806000610c7d612bc1565b600160008a81526020019081526020016000206040518061012001604052908160008201548152602001600182018054600181600116156101000203166002900480601f016020809104026020016040519081016040528092919081815260200182805460018160011615610100020316600290048015610d3f5780601f10610d1457610100808354040283529160200191610d3f565b820191906000526020600020905b815481529060010190602001808311610d2257829003601f168201915b50505050508152602001600282018054600181600116156101000203166002900480601f016020809104026020016040519081016040528092919081815260200182805460018160011615610100020316600290048015610de15780601f10610db657610100808354040283529160200191610de1565b820191906000526020600020905b815481529060010190602001808311610dc457829003601f168201915b50505050508152602001600382018054600181600116156101000203166002900480601f016020809104026020016040519081016040528092919081815260200182805460018160011615610100020316600290048015610e835780601f10610e5857610100808354040283529160200191610e83565b820191906000526020600020905b815481529060010190602001808311610e6657829003601f168201915b50505050508152602001600482018054600181600116156101000203166002900480601f016020809104026020016040519081016040528092919081815260200182805460018160011615610100020316600290048015610f255780601f10610efa57610100808354040283529160200191610f25565b820191906000526020600020905b815481529060010190602001808311610f0857829003601f168201915b50505050508152602001600582018054600181600116156101000203166002900480601f016020809104026020016040519081016040528092919081815260200182805460018160011615610100020316600290048015610fc75780601f10610f9c57610100808354040283529160200191610fc7565b820191906000526020600020905b815481529060010190602001808311610faa57829003601f168201915b505050505081526020016006820160009054906101000a900460ff161515151581526020016006820160019054906101000a900460ff161515151581526020016006820160029054906101000a900460ff16151515158152505090508060200151816040015182606001518360a001518460c001518560e00151866101000151869650859550849450839350975097509750975097509750975050919395979092949650565b611075612bc1565b600160008581526020019081526020016000206040518061012001604052908160008201548152602001600182018054600181600116156101000203166002900480601f0160208091040260200160405190810160405280929190818152602001828054600181600116156101000203166002900480156111375780601f1061110c57610100808354040283529160200191611137565b820191906000526020600020905b81548152906001019060200180831161111a57829003601f168201915b50505050508152602001600282018054600181600116156101000203166002900480601f0160208091040260200160405190810160405280929190818152602001828054600181600116156101000203166002900480156111d95780601f106111ae576101008083540402835291602001916111d9565b820191906000526020600020905b8154815290600101906020018083116111bc57829003601f168201915b50505050508152602001600382018054600181600116156101000203166002900480601f01602080910402602001604051908101604052809291908181526020018280546001816001161561010002031660029004801561127b5780601f106112505761010080835404028352916020019161127b565b820191906000526020600020905b81548152906001019060200180831161125e57829003601f168201915b50505050508152602001600482018054600181600116156101000203166002900480601f01602080910402602001604051908101604052809291908181526020018280546001816001161561010002031660029004801561131d5780601f106112f25761010080835404028352916020019161131d565b820191906000526020600020905b81548152906001019060200180831161130057829003601f168201915b50505050508152602001600582018054600181600116156101000203166002900480601f0160208091040260200160405190810160405280929190818152602001828054600181600116156101000203166002900480156113bf5780601f10611394576101008083540402835291602001916113bf565b820191906000526020600020905b8154815290600101906020018083116113a257829003601f168201915b505050505081526020016006820160009054906101000a900460ff161515151581526020016006820160019054906101000a900460ff161515151581526020016006820160029054906101000a900460ff1615151515815250509050604051806101200160405280858152602001826020015181526020018260400151815260200182606001518152602001826080015181526020018260a0015181526020018260c00151151581526020018415158152602001831515815250600160008681526020019081526020016000206000820151816000015560208201518160010190805190602001906114b2929190612c13565b5060408201518160020190805190602001906114cf929190612c13565b5060608201518160030190805190602001906114ec929190612c13565b506080820151816004019080519060200190611509929190612c13565b5060a0820151816005019080519060200190611526929190612c13565b5060c08201518160060160006101000a81548160ff02191690831515021790555060e08201518160060160016101000a81548160ff0219169083151502179055506101008201518160060160026101000a81548160ff02191690831515021790555090505050505050565b611599612bc1565b600160008381526020019081526020016000206040518061012001604052908160008201548152602001600182018054600181600116156101000203166002900480601f01602080910402602001604051908101604052809291908181526020018280546001816001161561010002031660029004801561165b5780601f106116305761010080835404028352916020019161165b565b820191906000526020600020905b81548152906001019060200180831161163e57829003601f168201915b50505050508152602001600282018054600181600116156101000203166002900480601f0160208091040260200160405190810160405280929190818152602001828054600181600116156101000203166002900480156116fd5780601f106116d2576101008083540402835291602001916116fd565b820191906000526020600020905b8154815290600101906020018083116116e057829003601f168201915b50505050508152602001600382018054600181600116156101000203166002900480601f01602080910402602001604051908101604052809291908181526020018280546001816001161561010002031660029004801561179f5780601f106117745761010080835404028352916020019161179f565b820191906000526020600020905b81548152906001019060200180831161178257829003601f168201915b50505050508152602001600482018054600181600116156101000203166002900480601f0160208091040260200160405190810160405280929190818152602001828054600181600116156101000203166002900480156118415780601f1061181657610100808354040283529160200191611841565b820191906000526020600020905b81548152906001019060200180831161182457829003601f168201915b50505050508152602001600582018054600181600116156101000203166002900480601f0160208091040260200160405190810160405280929190818152602001828054600181600116156101000203166002900480156118e35780601f106118b8576101008083540402835291602001916118e3565b820191906000526020600020905b8154815290600101906020018083116118c657829003601f168201915b505050505081526020016006820160009054906101000a900460ff161515151581526020016006820160019054906101000a900460ff161515151581526020016006820160029054906101000a900460ff1615151515815250509050604051806101200160405280838152602001826020015181526020018260400151815260200182606001518152602001826080015181526020018260a0015181526020016001151581526020018260e00151151581526020018261010001511515815250600160008481526020019081526020016000206000820151816000015560208201518160010190805190602001906119dc929190612c13565b5060408201518160020190805190602001906119f9929190612c13565b506060820151816003019080519060200190611a16929190612c13565b506080820151816004019080519060200190611a33929190612c13565b5060a0820151816005019080519060200190611a50929190612c13565b5060c08201518160060160006101000a81548160ff02191690831515021790555060e08201518160060160016101000a81548160ff0219169083151502179055506101008201518160060160026101000a81548160ff0219169083151502179055509050505050565b60005481565b600080600190506000600190505b6000548111611bf357836040516020018082805190602001908083835b60208310611b0d5780518252602082019150602081019050602083039250611aea565b6001836020036101000a03801982511681845116808217855250505050505090500191505060405160208183030381529060405280519060200120600160008381526020019081526020016000206001016040516020018082805460018160011615610100020316600290048015611bbc5780601f10611b9a576101008083540402835291820191611bbc565b820191906000526020600020905b815481529060010190602001808311611ba8575b5050915050604051602081830303815290604052805190602001201415611be65780606483020191505b8080600101915050611acd565b5080915050919050565b6001602052806000526040600020600091509050806000015490806001018054600181600116156101000203166002900480601f016020809104026020016040519081016040528092919081815260200182805460018160011615610100020316600290048015611caf5780601f10611c8457610100808354040283529160200191611caf565b820191906000526020600020905b815481529060010190602001808311611c9257829003601f168201915b505050505090806002018054600181600116156101000203166002900480601f016020809104026020016040519081016040528092919081815260200182805460018160011615610100020316600290048015611d4d5780601f10611d2257610100808354040283529160200191611d4d565b820191906000526020600020905b815481529060010190602001808311611d3057829003601f168201915b505050505090806003018054600181600116156101000203166002900480601f016020809104026020016040519081016040528092919081815260200182805460018160011615610100020316600290048015611deb5780601f10611dc057610100808354040283529160200191611deb565b820191906000526020600020905b815481529060010190602001808311611dce57829003601f168201915b505050505090806004018054600181600116156101000203166002900480601f016020809104026020016040519081016040528092919081815260200182805460018160011615610100020316600290048015611e895780601f10611e5e57610100808354040283529160200191611e89565b820191906000526020600020905b815481529060010190602001808311611e6c57829003601f168201915b505050505090806005018054600181600116156101000203166002900480601f016020809104026020016040519081016040528092919081815260200182805460018160011615610100020316600290048015611f275780601f10611efc57610100808354040283529160200191611f27565b820191906000526020600020905b815481529060010190602001808311611f0a57829003601f168201915b5050505050908060060160009054906101000a900460ff16908060060160019054906101000a900460ff16908060060160029054906101000a900460ff16905089565b60608060608060606000806000611f7f612bc1565b600160008b81526020019081526020016000206040518061012001604052908160008201548152602001600182018054600181600116156101000203166002900480601f0160208091040260200160405190810160405280929190818152602001828054600181600116156101000203166002900480156120415780601f1061201657610100808354040283529160200191612041565b820191906000526020600020905b81548152906001019060200180831161202457829003601f168201915b50505050508152602001600282018054600181600116156101000203166002900480601f0160208091040260200160405190810160405280929190818152602001828054600181600116156101000203166002900480156120e35780601f106120b8576101008083540402835291602001916120e3565b820191906000526020600020905b8154815290600101906020018083116120c657829003601f168201915b50505050508152602001600382018054600181600116156101000203166002900480601f0160208091040260200160405190810160405280929190818152602001828054600181600116156101000203166002900480156121855780601f1061215a57610100808354040283529160200191612185565b820191906000526020600020905b81548152906001019060200180831161216857829003601f168201915b50505050508152602001600482018054600181600116156101000203166002900480601f0160208091040260200160405190810160405280929190818152602001828054600181600116156101000203166002900480156122275780601f106121fc57610100808354040283529160200191612227565b820191906000526020600020905b81548152906001019060200180831161220a57829003601f168201915b50505050508152602001600582018054600181600116156101000203166002900480601f0160208091040260200160405190810160405280929190818152602001828054600181600116156101000203166002900480156122c95780601f1061229e576101008083540402835291602001916122c9565b820191906000526020600020905b8154815290600101906020018083116122ac57829003601f168201915b505050505081526020016006820160009054906101000a900460ff161515151581526020016006820160019054906101000a900460ff161515151581526020016006820160029054906101000a900460ff161515151581525050905080602001518160400151826060015183608001518460a001518560c001518660e001518761010001518797508696508595508494508393509850985098509850985098509850985050919395975091939597565b6000808154809291906001019190505550604051806101200160405280600054815260200185815260200184815260200183815260200160405180602001604052806000815250815260200182815260200160001515815260200160001515815260200160001515815250600160008054815260200190815260200160002060008201518160000155602082015181600101908051906020019061241e929190612c13565b50604082015181600201908051906020019061243b929190612c13565b506060820151816003019080519060200190612458929190612c13565b506080820151816004019080519060200190612475929190612c13565b5060a0820151816005019080519060200190612492929190612c13565b5060c08201518160060160006101000a81548160ff02191690831515021790555060e08201518160060160016101000a81548160ff0219169083151502179055506101008201518160060160026101000a81548160ff02191690831515021790555090505060026001600080548152602001908152602001600020908060018154018082558091505090600182039060005260206000209060070201600090919290919091506000820154816000015560018201816001019080546001816001161561010002031660029004612569929190612c93565b5060028201816002019080546001816001161561010002031660029004612591929190612c93565b50600382018160030190805460018160011615610100020316600290046125b9929190612c93565b50600482018160040190805460018160011615610100020316600290046125e1929190612c93565b5060058201816005019080546001816001161561010002031660029004612609929190612c93565b506006820160009054906101000a900460ff168160060160006101000a81548160ff0219169083151502179055506006820160019054906101000a900460ff168160060160016101000a81548160ff0219169083151502179055506006820160029054906101000a900460ff168160060160026101000a81548160ff02191690831515021790555050505050505050565b6126a2612bc1565b600160008481526020019081526020016000206040518061012001604052908160008201548152602001600182018054600181600116156101000203166002900480601f0160208091040260200160405190810160405280929190818152602001828054600181600116156101000203166002900480156127645780601f1061273957610100808354040283529160200191612764565b820191906000526020600020905b81548152906001019060200180831161274757829003601f168201915b50505050508152602001600282018054600181600116156101000203166002900480601f0160208091040260200160405190810160405280929190818152602001828054600181600116156101000203166002900480156128065780601f106127db57610100808354040283529160200191612806565b820191906000526020600020905b8154815290600101906020018083116127e957829003601f168201915b50505050508152602001600382018054600181600116156101000203166002900480601f0160208091040260200160405190810160405280929190818152602001828054600181600116156101000203166002900480156128a85780601f1061287d576101008083540402835291602001916128a8565b820191906000526020600020905b81548152906001019060200180831161288b57829003601f168201915b50505050508152602001600482018054600181600116156101000203166002900480601f01602080910402602001604051908101604052809291908181526020018280546001816001161561010002031660029004801561294a5780601f1061291f5761010080835404028352916020019161294a565b820191906000526020600020905b81548152906001019060200180831161292d57829003601f168201915b50505050508152602001600582018054600181600116156101000203166002900480601f0160208091040260200160405190810160405280929190818152602001828054600181600116156101000203166002900480156129ec5780601f106129c1576101008083540402835291602001916129ec565b820191906000526020600020905b8154815290600101906020018083116129cf57829003601f168201915b505050505081526020016006820160009054906101000a900460ff161515151581526020016006820160019054906101000a900460ff161515151581526020016006820160029054906101000a900460ff16151515158152505090506040518061012001604052808481526020018260200151815260200182604001518152602001826060015181526020018381526020018260a0015181526020016000151581526020016000151581526020016001151581525060016000858152602001908152602001600020600082015181600001556020820151816001019080519060200190612ada929190612c13565b506040820151816002019080519060200190612af7929190612c13565b506060820151816003019080519060200190612b14929190612c13565b506080820151816004019080519060200190612b31929190612c13565b5060a0820151816005019080519060200190612b4e929190612c13565b5060c08201518160060160006101000a81548160ff02191690831515021790555060e08201518160060160016101000a81548160ff0219169083151502179055506101008201518160060160026101000a81548160ff021916908315150217905550905050505050565b60008054905090565b6040518061012001604052806000815260200160608152602001606081526020016060815260200160608152602001606081526020016000151581526020016000151581526020016000151581525090565b828054600181600116156101000203166002900490600052602060002090601f016020900481019282601f10612c5457805160ff1916838001178555612c82565b82800160010185558215612c82579182015b82811115612c81578251825591602001919060010190612c66565b5b509050612c8f9190612d1a565b5090565b828054600181600116156101000203166002900490600052602060002090601f016020900481019282601f10612ccc5780548555612d09565b82800160010185558215612d0957600052602060002091601f016020900482015b82811115612d08578254825591600101919060010190612ced565b5b509050612d169190612d1a565b5090565b612d3c91905b80821115612d38576000816000905550600101612d20565b5090565b9056fea265627a7a72315820af29d0d2f94ebb98074cbb35514175033ee07f5354fac253ab80d1d304cf202a64736f6c63430005100032",
  "source": "\r\npragma solidity ^0.5.0;\r\n\r\ncontract VerifierSSI{\r\n    uint public reqCount = 0;\r\n  struct Request{\r\n      uint id;\r\n      string user_did;\r\n      string V_publicKey;\r\n      string comp_and_doc;\r\n      string encAddress;\r\n      string request_at;\r\n      bool removed;\r\n      bool review;\r\n      bool status;\r\n  }\r\nmapping(uint => Request) public requests;\r\n\r\nRequest[] arrRequest;\r\n\r\nfunction makeRequest(string memory user_did, string memory V_publicKey,string memory comp_and_doc, string memory request_at) public{\r\n  reqCount++;\r\n  requests[reqCount] = Request(reqCount,user_did,V_publicKey,comp_and_doc,\"\",request_at,false,false,false);\r\n  arrRequest.push(requests[reqCount]);\r\n}\r\n\r\nfunction acceptedByUser(uint id,string memory encAddress) public {\r\n    Request memory req = requests[id];\r\n    requests[id] = Request(id,req.user_did,req.V_publicKey,req.comp_and_doc,encAddress,req.request_at,false,false,true);\r\n}\r\n\r\nfunction showRequest(string memory user_did) public view returns (uint){\r\n      uint index;\r\n      index = 1;\r\n    for(uint i = 1; i <= reqCount; i++){\r\n        if(keccak256(abi.encodePacked((requests[i].user_did))) == keccak256(abi.encodePacked((user_did)))){\r\n            index = index * 100 + i;\r\n        }\r\n    }\r\n      return index;\r\n}\r\n\r\nfunction showAllRequest() public view returns (uint){\r\n    return reqCount;\r\n}\r\n\r\nfunction getIndividualRequest(uint id) public view returns (string memory u_did,string memory V_publicKey, string memory comp_and_doc,string memory req_at,bool removed,bool review, bool status){\r\n    Request memory req = requests[id];\r\n    return(req.user_did,req.V_publicKey,req.comp_and_doc,req.request_at,req.removed,req.review,req.status);\r\n}\r\n\r\nfunction getIndividualRequestForVerifier(uint id) public view returns (string memory u_did,string memory V_publicKey, string memory comp_and_doc,string memory encAddress,string memory req_at,bool removed,bool review, bool status){\r\n    Request memory req = requests[id];\r\n    return(req.user_did,req.V_publicKey,req.comp_and_doc,req.encAddress,req.request_at,req.removed,req.review,req.status);\r\n}\r\n\r\nfunction verifyDocument(uint id,bool review,bool status) public {\r\n    Request memory req = requests[id];\r\n    requests[id] = Request(id,req.user_did,req.V_publicKey,req.comp_and_doc,req.encAddress,req.request_at,req.removed,review,status);\r\n}\r\n\r\nfunction removeRequest(uint id) public {\r\n    Request memory req = requests[id];\r\n    requests[id] = Request(id,req.user_did,req.V_publicKey,req.comp_and_doc,req.encAddress,req.request_at,true,req.review,req.status);\r\n\r\n}\r\n\r\n}\r\n",
  "sourcePath": "F:/bclyang/BLOCK/contracts/VerifierSSI.sol",
  "compiler": {
    "name": "solc",
    "version": "0.5.16+commit.9c3226ce.Emscripten.clang"
  },
  "schemaVersion": "3.4.1",
  "updatedAt": "2021-08-29T06:22:19.104Z",
  "networkType": "ethereum",
  "devdoc": {
    "methods": {}
  },
  "userdoc": {
    "methods": {}
  }
}